:020000040800F2
:10000000880C002041020008B5090008DB08000840
:10001000B1090008F50400083F0F000800000000C7
:10002000000000000000000000000000E50B0008D8
:10003000F904000800000000450A0008FD0C000853
:100040005B0200085B0200085B0200085B0200081C
:100050005B0200085B0200085B0200085B0200080C
:100060005B0200085B0200085B0200085B020008FC
:100070005B0200085B0200085B0200085B020008EC
:100080005B0200085B0200085B0200085B020008DC
:100090005B0200085B0200085B0200085B020008CC
:1000A0005B0200085B0200085B0200085B020008BC
:1000B0005B0200085B0200085B0200085B020008AC
:1000C0005B0200085B0200085B0200085B0200089C
:1000D0005B020008690D00085B0200085B02000873
:1000E0005B0200085B0200085B0200085B0200087C
:1000F0005B0200085B0200085B0200085B0200086C
:100100005B0200085B0200085B0200085B0200085B
:100110005B0200085B0200085B0200085B0200084B
:100120005B0200085B0200085B0200085B0200083B
:100130005B0200085B0200085B0200085B0200082B
:100140005B0200085B0200085B0200085B0200081B
:100150005B0200085B0200085B0200085B0200080B
:100160005B0200085B0200085B0200085B020008FB
:100170005B0200085B0200085B0200085B020008EB
:100180005B0200085B02000800F002F800F041F892
:100190000AA090E8000C82448344AAF10107DA45E2
:1001A00001D100F036F8AFF2090EBAE80F0013F0F3
:1001B000010F18BFFB1A43F0010318478813000012
:1001C000A8130000103A24BF78C878C1FAD85207A3
:1001D00024BF30C830C144BF04680C6070470000C1
:1001E0000023002400250026103A28BF78C1FBD840
:1001F000520728BF30C148BF0B607047642900F028
:100200007F80002070471FB501F096F91FBD10B523
:1002100010BD00F03DF91146FFF7F5FF00F002FFB9
:1002200000F05BF903B4FFF7F2FF03BC00F089FEB6
:1002300030BF72B6704762B6704780F30888704767
:100240000948804709480047FEE7FEE7FEE7FEE76A
:10025000FEE7FEE7FEE7FEE7FEE7FEE704480549A6
:10026000034A054B70470000010D00088901000892
:1002700088080020880C00208808002070470000B3
:100280000FB4044910B503AA029800F0D3F810BCCB
:100290005DF814FB080000202DE9F0410E460446ED
:1002A000002020622046E168884730B3252805D029
:1002B000D4E901219047206A401CF2E7E16820461A
:1002C00000278847050018D0A5F14100192802D859
:1002D00020354FF400673246294620462760FFF755
:1002E0008DFF40B1012804D0F61D26F00706083620
:1002F000D8E7361DD6E72846DAE7206ABDE8F08160
:100300002DE9F0410646002410687529314616A5EE
:1003100010D0AFF30080002802DA404213A507E0B6
:1003200031688A0701D512A502E0490704D511A555
:10033000012401E0AFF3008000210A2206F1240726
:1003400009E0B0FBF2FCB0FBF2F302FB1C00303022
:1003500078541846491C0028F3D123462A463046D3
:10036000BDE8F04100F00CB8000000002D000000D6
:100370002B00000020000000704770477047704756
:100380002DE9F0470D4699469246044600F12408AF
:100390000168880604D5E06921F01001216000E0C1
:1003A0000120A84201DD471B00E00027A1697A195E
:1003B00002EB0900081AA0612078C00602D420468A
:1003C000AFF30080002608E0D4E901211AF8060006
:1003D0009047206A401C761C20624E45F4DB207852
:1003E000C0060AD52046AFF3008006E0D4E901211B
:1003F00030209047206A401C2062381EA7F1010778
:10040000F4DC07E0D4E9012118F805009047206AE0
:10041000401C2062281EA5F10105F3DC2046AFF345
:1004200000802078000602D50220BDE8F087012078
:10043000FBE70000074B70B50D467B4400F011F858
:100440000446284600F020F810B14FF0FF3070BD90
:10045000204670BDCB0B000001694A1C0261087880
:10046000704700B58FB0CDE90131002105910549F4
:100470007944CDE9031011466846FFF70DFF0FB030
:1004800000BD0000E5FFFFFF007B00F0800070472B
:10049000754600F02BF8AE4605006946534620F03D
:1004A0000700854618B020B5FFF7D8FEBDE820400C
:1004B0004FF000064FF000074FF000084FF0000B20
:1004C00021F00701AC46ACE8C009ACE8C009ACE8D3
:1004D000C009ACE8C0098D46704710B50446AFF3BB
:1004E00000802046BDE81040FFF79CBE00487047E2
:1004F0002808002000BFFEE770470000014908609F
:10050000704700000C3C024030B10749096841F4D3
:100510008061054A116005E00349096821F48061A2
:10052000014A116070470000003C024070B504466B
:100530000A460026092502B909E0012A01D116025E
:1005400005E0022A01D1160201E04FF4407600F0E6
:10055000A3F80546092D28D11548006820F44070FD
:100560001349086008460068304308600846006880
:1005700020F0F80008600846006844F002010843D3
:100580000B4908600846006840F48030086000F0BD
:1005900083F805460648006820F002000449086018
:1005A0000846006820F0F8000860284670BD00008A
:1005B000103C024009201349096801F48031B1F56B
:1005C000803F01D101201CE00E49096801F01001B3
:1005D00009B1062015E00B49096801F4807109B1E1
:1005E00002200EE00749096801F0EF0109B1072078
:1005F00007E00449096801F0020109B1082000E0A0
:10060000092070470C3C02400348006840F000405D
:100610000149086070470000103C024030B50246B6
:100620000C46092500F038F80546092D19D10E4869
:10063000006820F440700C4908600846006840F4E7
:10064000007008600846006840F00100086014600F
:1006500000F022F805460448006820F00100024935
:100660000860284630BD0000103C02400146086882
:10067000704700000548006800F0004028B10448B9
:1006800002490C390860034808607047103C02407A
:1006900023016745AB89EFCD08B509200090FFF72E
:1006A00089FF009002E0FFF785FF00909DF80000B1
:1006B0000128F8D09DF8000008BD00002DE9F047A2
:1006C00004460E4617464FF00909254604EB8708F5
:1006D000B4F1006F02D304F0030010B10020BDE8B4
:1006E000F087FFF7C7FF0020FFF70EFFF120FFF7AD
:1006F00005FF1648854212D20EE02846FFF7B6FFE6
:10070000401C40B1284600F023F882460221FFF742
:100710000DFF814602E02D1D4545EED300BFB9F126
:10072000090F0CD109E020463168FFF777FF09284F
:1007300001D00020D3E7241D361D4445F3D301200A
:10074000FFF7E2FEFFF760FF0120C8E70000FF1F90
:100750000146B1F1006F04D91E48814201D2002048
:1007600070471D48814201D20820F9E71B488142A9
:1007700001D21020F4E71A48814201D21820EFE795
:100780001848814201D22020EAE71748814201D26D
:100790002820E5E71548814201D23020E0E71448DF
:1007A000814201D23820DBE71248814201D2402049
:1007B000D6E71148814201D24820D1E70F48814253
:1007C00001D25020CCE7B1F1016F01D25820C7E728
:1007D0000020C5E7004000080080000800C00008B5
:1007E00000000108000002080000040800000608DC
:1007F0000000080800000A0800000C0800000E08AD
:10080000F0B50A4600210023002400BF3DE0012589
:1008100005FA01F3156805EA03049C4234D1056822
:100820004F000326BE40B543056015794E00B54024
:100830000668354305601579012D02D01579022D22
:1008400016D185684F000326BE40B54385605579B3
:100850004E00B540866835438560456801268E4068
:10086000B5434560456896798E40B6B235434560DC
:10087000C5684F000326BE40B543C560D5794E001C
:10088000B540C6683543C560491C1029BFD3F0BDCB
:10089000F0B5002300244D07ED0E02FA05F3CE104B
:1008A00000F1200555F826504E07F70E0F26BE40E2
:1008B000B543CF1000F1200646F82750CE1000F1C6
:1008C000200555F8265045EA0304CE1000F1200516
:1008D00045F82640F0BD0183704700BFFEE70000E9
:1008E00010B50446206807490840B0F1005F08D100
:1008F0006068054908602068FFF79FFC02480068AF
:10090000804710BD0000FE2F000000202DE9F05FA1
:100910000746884691460025BB464446AA461DE048
:10092000E0780606A07846EA0046607846EA0026A7
:1009300020780643241D2846691C8DB20C4941F8D5
:100940002060B5F5007F07D100254FF400725846AE
:10095000FFF7B4FE0BF5006B0AF1040ACA45DFD3BA
:1009600025B12A4602495846FFF7A8FEBDE8F09F88
:10097000280000201CB50121102000F065F830206F
:10098000009001208DF8040000208DF8060003205F
:100990008DF8050001208DF8070069460348FFF730
:1009A0002FFF30210148FFF796FF1CBD00100240C9
:1009B00000BFFEE77047000070B5002100230F2242
:1009C000C4781CB3174C246804F4E064C4F5E064F4
:1009D000C4F30721C1F10404E3B20A4144789C4006
:1009E000E1B28478144021430C07210E0E4C0578A7
:1009F0006155047804F01F050124AC4005786D11A1
:100A0000AD0005F1E025C5F8004109E0047804F0E7
:100A10001F050124AC40054D0678761145F82640A7
:100A200070BD00000CED00E000E400E080E100E0BB
:100A300002490143024A1160704700000000FA05B4
:100A40000CED00E07047000029B1064A126802432D
:100A5000044B1A6004E0034A12688243014B1A6097
:100A6000704700003038024029B1064A126802433C
:100A7000044B1A6004E0034A12688243014B1A6077
:100A80007047000044380240F0B5002100220024E5
:100A9000022500260223324F3F6807F00C0121B1E6
:100AA000042905D0082937D105E02E4F076036E02C
:100AB0002D4F076033E02A4F3F1F3F68C7F3805632
:100AC000274F3F1F3F6807F03F036EB1264FB7FB2C
:100AD000F3F7DFF88CC0ACF1040CDCF800C0CCF309
:100AE000881C07FB0CF40CE01E4FB7FBF3F7DFF894
:100AF00070C0ACF1040CDCF800C0CCF3881C07FB20
:100B00000CF4174F3F1F3F68C7F301477F1C7D0060
:100B1000B4FBF5F7076002E0124F076000BF00BFAB
:100B20000F4F3F6807F0F0010909104F7A5C076822
:100B3000D74047600A4F3F6807F4E051890A0B4FDE
:100B40007A5C4768D7408760054F3F6807F460418B
:100B5000490B064F7A5C4768D740C760F0BD00007C
:100B6000083802400024F40000127A00150000202A
:100B700010B50924FFF77EFD0020FFF7C5FC022118
:100B80001448FFF7D3FC0446092C01D0002010BD07
:100B900002211148FFF7CAFC0446092C01D00020AD
:100BA000F5E702210D48FFF7C1FC0446092C01D0EE
:100BB0000020ECE702210A48FFF7B8FC0446092CA4
:100BC00001D00020E3E70120FFF79EFCFFF71CFDAA
:100BD0000120DCE7004000080080000800C0000899
:100BE00000000108704700000CB500200190009043
:100BF0003448006840F480303249086000BF314812
:100C0000006800F4003000900198401C01900098AA
:100C100018B90198B0F5A04FF1D12A48006800F446
:100C2000003010B10120009001E0002000900098F9
:100C3000012846D123484030006840F080502149C7
:100C4000403108602048006840F440401E49086078
:100C50001C48083000681B490831086008460068D5
:100C600040F4004008600846006840F4A050086066
:100C70001648091F0860081F006840F08070091FAF
:100C8000086000BF0F48006800F000700028F9D02D
:100C900040F205700E4908600A480830006820F0EC
:100CA00003000849083108600846006840F0020067
:100CB000086000BF03480830006800F00C000828F6
:100CC000F8D10CBD003802400070004008544007C5
:100CD000003C0240042808D14FF0E021096941F0AE
:100CE00004014FF0E022116107E04FF0E0210969B3
:100CF00021F004014FF0E0221161704770470000BD
:100D000010B51548006840F4700013490860134896
:100D1000006840F001001149086000200F490831C7
:100D200008600E4800680E4908400C4908600D48EC
:100D3000091D0860081F006820F48020091F086052
:100D4000002006490C310860FFF74EFF4FF00060AD
:100D500001498039086010BD88ED00E0003802408C
:100D6000FFFFF6FE1030002410B540F225510B486D
:100D700000F026F888B1094800F0DCF8C4B2084851
:100D80000068B0F5E03F08D20648054909684454B8
:100D900003480068401C0249086010BD0010014073
:100DA000100000200010002021B1828942F400527E
:100DB000828104E082894DF6FF731A408281704778
:100DC00070B50246002400230025002040F66A1674
:100DD000B14200D100BFC1F3421501F01F0301264B
:100DE00006FA03F3012D02D19689334006E0022D65
:100DF00002D1168A334001E0968A33400C12012654
:100E000006FA04F41688344013B10CB1012000E056
:100E1000002070BDF0B50346002400260025002008
:100E200040F66A17B94200D100BF1846C1F3421418
:100E300001F01F06012707FA06F5012C01D10C303D
:100E400004E0022C01D1103000E014301AB1076820
:100E50002F43076002E00768AF430760F0BD000062
:100E60002DE9FF4705460E460024A14600BFA046D7
:100E7000B08900B100BF2C8A24F44054F0880443A8
:100E80002C82AC8941F20C608443B08831890843DC
:100E9000718908430443AC81AC8A24F44074B0895E
:100EA0000443AC826846FFF7EFFD2048854202D03C
:100EB0001F48854202D1DDF80C9001E0DDF8089072
:100EC000A88900F4004040B109EBC90000EB09100B
:100ED00031684900B0FBF1F707E009EBC90000EB0E
:100EE000091031688900B0FBF1F76420B7FBF0F01E
:100EF00004012009642101FB1078A88900F4004056
:100F000040B1322000EBC800B0FBF1F000F0070068
:100F1000044308E0322000EB08106421B0FBF1F03C
:100F200000F00F0004432C81BDE8FF870010014052
:100F30000014014001468888C0F30800704700BFD4
:100F4000FEE700BF7047000010B504466FF00400D4
:100F5000FFF7C0FEE11704EB5171C1F3C701074A67
:100F600011701046007800EB4001C1EBC0104FF645
:100F7000FF7101EAC0000249088010BD0400002092
:100F80000600002070B504464FF4077094FBF0F0A3
:100F9000C6B24FF4077094FBF0F100FB114085B22C
:100FA00005E04FF4077000F009F8701EC6B2002E7D
:100FB000F7D115B1284600F001F870BD0146114A7D
:100FC00012884A434FF0E0235A6100229A611A4680
:100FD000126942F001021A6100BF4FF0E02210696D
:100FE00000F001021AB100F48032002AF5D04FF06F
:100FF000E022126922F001024FF0E0231A61002280
:101000009A6170470600002000BF054A128802F06E
:101010004002002AF9D0C2B2014B9A80704700000A
:10102000001001401CB50027002400250026A04622
:101030004FF4A060FFF7FCFCA820FFF785FFFFF747
:1010400099FC4FF4E13000F021FA6D48FFF70EFBF8
:1010500081466B48401CFFF709FB824655200090F3
:1010600000200190CBE0B9F1550F76D0BAF1550FC1
:1010700003D1FFF77DFD4FF0000A624800680028A9
:1010800048D060480068874242D15E480568002E1B
:1010900023D1052D21D15C480078A52815D15A48C7
:1010A00040785A2811D15848807831280DD15648B7
:1010B000C078422809D1544800790D2805D101266D
:1010C000002552A0FFF7DCF81DE000205D49087004
:1010D00000245DA0FFF7D4F815E0012E0FD10A2DF2
:1010E0000DD90120574908700026464804685BA0C6
:1010F000FFF7C6F8214661A0FFF7C2F803E000251C
:1011000063A0FFF7BDF8002700203E49086001E01A
:101110003C4807680A20FFF735FF4A480078002856
:1011200042D0002047490870002C3AD060A0FFF759
:10113000A7F86548406800F07F40B0F1006F2CD1FF
:10114000224631496148FFF7E1FB61A0FFF798F8BB
:101150004FF47A70FFF716FF00E044E06AA0FFF753
:101160008FF84FF47A70FFF70DFF75A0FFF788F83E
:101170004FF47A70FFF706FF7FA0FFF781F84FF476
:101180007A70FFF7FFFE8AA0FFF77AF84FF47A70C3
:10119000FFF7F8FE4FF0010806E093A0FFF770F8A4
:1011A00002E0A1A0FFF76CF8B8F1000F27D0A4A0CF
:1011B000FFF766F80A20FFF7E5FE4448406800F0B4
:1011C0007F40B0F1006F0AD14FF00008022269465B
:1011D0000B48FFF773FA3D48FFF782FB0FE09FA033
:1011E000FFF74EF80BE0A3A0FFF74AF894A0FFF733
:1011F00047F80A20FFF7C6FE3448FFF771FB32E7D5
:1012000000100E08100000200010002052656164DC
:101210007920746F207265636965766520617070EE
:1012200020636F64652C706C656173652061646414
:1012300020612062696E6172792066696C65210D9A
:101240000A00000014000020436F6D6D616E642081
:101250004572726F72210D0A00000000417070200B
:10126000636F6465207265636965766520636F6D81
:10127000706C657465210D0A00000000436F6465A1
:101280002073697A653A256442797465730D0A00A2
:101290004E6F7420636F72726563742066696C654B
:1012A000206F7220636F6D6D616E64210D0A000006
:1012B0005570646174696E672061707020636F643B
:1012C000652E2E2E0D0A00000010002000400008A0
:1012D000436F64652055706461746520436F6D7061
:1012E0006C657465214A756D7020746F2041707053
:1012F00020436F646520496E2035207365636F6EEF
:1013000064210D0A00000000436F6465205570647D
:1013100061746520436F6D706C657465214A756DED
:101320007020746F2041707020436F646520496E97
:101330002034207365636F6E64210D0A0000000085
:10134000436F64652055706461746520436F6D70F0
:101350006C657465214A756D7020746F20417070E2
:1013600020436F646520496E2033207365636F6E80
:1013700064210D0A00000000436F6465205570640D
:1013800061746520436F6D706C657465214A756D7D
:101390007020746F2041707020436F646520496E27
:1013A0002032207365636F6E64210D0A0000000017
:1013B000436F64652055706461746520436F6D7080
:1013C0006C657465214A756D7020746F2041707072
:1013D00020436F646520496E2031207365636F6E12
:1013E00064210D0A00000000436F6465207570647D
:1013F000617465206661696C656421506C65617318
:101400006520636865636B206C6567616C697479DE
:10141000206F66207468652062696E61727920664B
:10142000696C65210D0A00004E6F20436F646520D2
:1014300043616E20557064617465210D0A000000DF
:1014400053746172742072756E6E696E672061707C
:101450007020636F6465210D0A00000041707020E8
:10146000636F646520697320696C6C6567616C21CA
:101470000D0A0000546865726520697320616E2052
:1014800061707020636F6465210D0A0010B588B02B
:10149000044601210846FFF7D7FA01211020FFF783
:1014A000E3FA072209212248FFF7F2F907220A216D
:1014B0001F48FFF7EDF94FF4C060069002208DF849
:1014C0001C008DF81D0000208DF81E0001208DF8F5
:1014D0001F0006A91648FFF793F902940020ADF803
:1014E0000C00ADF80E00ADF81000ADF814000C20A3
:1014F000ADF8120002A90F48FFF7B2FC01210D4818
:10150000FFF752FC012240F225510A48FFF782FC06
:1015100025208DF8040003208DF805008DF80600C5
:1015200001208DF8070001A8FFF746FA08B010BDAA
:1015300000000240001001404FF04070E1EE100A40
:10154000704700006415000800000020280000001B
:10155000C40100088C15000828000020D8CF010025
:10156000E001000800000000000000000000000092
:101570000000000000000000000000000001020365
:0C15800004010203040607080900000033
:040000050800018965
:00000001FF
